{
  "_format": "hh-sol-artifact-1",
  "contractName": "AssetLock",
  "sourceName": "contracts/AssetLock.sol",
  "abi": [
    {
      "inputs": [
        {
          "internalType": "address",
          "name": "_sugarNFT",
          "type": "address"
        }
      ],
      "stateMutability": "nonpayable",
      "type": "constructor"
    },
    {
      "anonymous": false,
      "inputs": [
        {
          "indexed": false,
          "internalType": "address",
          "name": "asset",
          "type": "address"
        },
        {
          "indexed": false,
          "internalType": "uint256",
          "name": "amount",
          "type": "uint256"
        }
      ],
      "name": "AssetDeposited",
      "type": "event"
    },
    {
      "anonymous": false,
      "inputs": [
        {
          "indexed": true,
          "internalType": "address",
          "name": "previousOwner",
          "type": "address"
        },
        {
          "indexed": true,
          "internalType": "address",
          "name": "newOwner",
          "type": "address"
        }
      ],
      "name": "OwnershipTransferred",
      "type": "event"
    },
    {
      "anonymous": false,
      "inputs": [
        {
          "indexed": false,
          "internalType": "address",
          "name": "account",
          "type": "address"
        }
      ],
      "name": "Paused",
      "type": "event"
    },
    {
      "anonymous": false,
      "inputs": [
        {
          "indexed": false,
          "internalType": "address",
          "name": "account",
          "type": "address"
        }
      ],
      "name": "Unpaused",
      "type": "event"
    },
    {
      "inputs": [
        {
          "internalType": "address",
          "name": "_asset",
          "type": "address"
        }
      ],
      "name": "approveAsset",
      "outputs": [],
      "stateMutability": "nonpayable",
      "type": "function"
    },
    {
      "inputs": [
        {
          "internalType": "uint256[]",
          "name": "tokenIds",
          "type": "uint256[]"
        }
      ],
      "name": "claim",
      "outputs": [],
      "stateMutability": "nonpayable",
      "type": "function"
    },
    {
      "inputs": [
        {
          "internalType": "address",
          "name": "_asset",
          "type": "address"
        },
        {
          "internalType": "uint256",
          "name": "_amount",
          "type": "uint256"
        }
      ],
      "name": "deposit",
      "outputs": [],
      "stateMutability": "nonpayable",
      "type": "function"
    },
    {
      "inputs": [
        {
          "internalType": "address",
          "name": "_asset",
          "type": "address"
        }
      ],
      "name": "disapproveAsset",
      "outputs": [],
      "stateMutability": "nonpayable",
      "type": "function"
    },
    {
      "inputs": [
        {
          "internalType": "address",
          "name": "_asset",
          "type": "address"
        }
      ],
      "name": "getAssetBalance",
      "outputs": [
        {
          "internalType": "uint256",
          "name": "",
          "type": "uint256"
        }
      ],
      "stateMutability": "view",
      "type": "function"
    },
    {
      "inputs": [
        {
          "internalType": "address",
          "name": "_asset",
          "type": "address"
        }
      ],
      "name": "isAssetApproved",
      "outputs": [
        {
          "internalType": "bool",
          "name": "",
          "type": "bool"
        }
      ],
      "stateMutability": "view",
      "type": "function"
    },
    {
      "inputs": [],
      "name": "lockTime",
      "outputs": [
        {
          "internalType": "uint256",
          "name": "",
          "type": "uint256"
        }
      ],
      "stateMutability": "view",
      "type": "function"
    },
    {
      "inputs": [],
      "name": "owner",
      "outputs": [
        {
          "internalType": "address",
          "name": "",
          "type": "address"
        }
      ],
      "stateMutability": "view",
      "type": "function"
    },
    {
      "inputs": [],
      "name": "pause",
      "outputs": [],
      "stateMutability": "nonpayable",
      "type": "function"
    },
    {
      "inputs": [],
      "name": "paused",
      "outputs": [
        {
          "internalType": "bool",
          "name": "",
          "type": "bool"
        }
      ],
      "stateMutability": "view",
      "type": "function"
    },
    {
      "inputs": [],
      "name": "renounceOwnership",
      "outputs": [],
      "stateMutability": "nonpayable",
      "type": "function"
    },
    {
      "inputs": [
        {
          "internalType": "uint256",
          "name": "timeInDay",
          "type": "uint256"
        }
      ],
      "name": "setLockTime",
      "outputs": [],
      "stateMutability": "nonpayable",
      "type": "function"
    },
    {
      "inputs": [
        {
          "internalType": "address",
          "name": "_sugarNFT",
          "type": "address"
        }
      ],
      "name": "setSugarNFT",
      "outputs": [],
      "stateMutability": "nonpayable",
      "type": "function"
    },
    {
      "inputs": [],
      "name": "sugarNFT",
      "outputs": [
        {
          "internalType": "contract ISugarNFT",
          "name": "",
          "type": "address"
        }
      ],
      "stateMutability": "view",
      "type": "function"
    },
    {
      "inputs": [
        {
          "internalType": "address",
          "name": "newOwner",
          "type": "address"
        }
      ],
      "name": "transferOwnership",
      "outputs": [],
      "stateMutability": "nonpayable",
      "type": "function"
    },
    {
      "inputs": [],
      "name": "unpause",
      "outputs": [],
      "stateMutability": "nonpayable",
      "type": "function"
    },
    {
      "inputs": [],
      "name": "withdraw",
      "outputs": [],
      "stateMutability": "nonpayable",
      "type": "function"
    }
  ],
  "bytecode": "0x608060405234801561001057600080fd5b5060405161189738038061189783398101604081905261002f916100ba565b6100383361006a565b6000805460ff60a01b19169055600680546001600160a01b0319166001600160a01b03929092169190911790556100ea565b600080546001600160a01b038381166001600160a01b0319831681178455604051919092169283917f8be0079c531659141344cd1fd0a4f28419497f9722a3daafe3b4186f6b6457e09190a35050565b6000602082840312156100cc57600080fd5b81516001600160a01b03811681146100e357600080fd5b9392505050565b61179e806100f96000396000f3fe608060405234801561001057600080fd5b506004361061010b5760003560e01c80636ba4c138116100a25780638da5cb5b116100715780638da5cb5b1461020f578063a75995e414610220578063ae04d45d14610233578063ba3a0f6c14610246578063f2fde38b1461025957600080fd5b80636ba4c138146101c0578063715018a6146101d35780638456cb59146101db5780638a009e95146101e357600080fd5b806347e7ef24116100de57806347e7ef24146101695780635373433f1461017c5780635c975abb1461018f57806366cc4177146101ad57600080fd5b80630d6680871461011057806334563f2b1461012c5780633ccfd60b146101575780633f4ba83a14610161575b600080fd5b61011960055481565b6040519081526020015b60405180910390f35b60065461013f906001600160a01b031681565b6040516001600160a01b039091168152602001610123565b61015f61026c565b005b61015f6105e0565b61015f6101773660046114a7565b6105f2565b61011961018a3660046114d3565b610902565b600054600160a01b900460ff165b6040519015158152602001610123565b61015f6101bb3660046114d3565b6109e2565b61015f6101ce3660046114f7565b610a0c565b61015f610c12565b61015f610c24565b61019d6101f13660046114d3565b6001600160a01b031660009081526004602052604090205460ff1690565b6000546001600160a01b031661013f565b61015f61022e3660046114d3565b610c34565b61015f61024136600461156c565b610cb9565b61015f6102543660046114d3565b610d2e565b61015f6102673660046114d3565b610f4b565b610274610fc4565b60055442116102bb5760405162461bcd60e51b815260206004820152600e60248201526d131bd8dada5b99c814195c9a5bd960921b60448201526064015b60405180910390fd5b600654604080516362720d9160e11b815290516000926001600160a01b03169163c4e41b229160048083019260209291908290030181865afa158015610305573d6000803e3d6000fd5b505050506040513d601f19601f820116820180604052508101906103299190611585565b90506000600660009054906101000a90046001600160a01b03166001600160a01b031663561892366040518163ffffffff1660e01b8152600401602060405180830381865afa158015610380573d6000803e3d6000fd5b505050506040513d601f19601f820116820180604052508101906103a49190611585565b905060006103b282846115b4565b905060005b604051636f59ec4b60e11b81526001600482015273__$9fb44ff2c34f190f83e05881311175c942$__9063deb3d89690602401602060405180830381865af4158015610407573d6000803e3d6000fd5b505050506040513d601f19601f8201168201806040525081019061042b9190611585565b8110156105da576040516368d54f3f60e11b8152600160048201526024810182905260009073__$9fb44ff2c34f190f83e05881311175c942$__9063d1aa9e7e90604401602060405180830381865af415801561048c573d6000803e3d6000fd5b505050506040513d601f19601f820116820180604052508101906104b091906115cb565b60405163732a2ccf60e01b8152600160048201526001600160a01b0382166024820181905291925063a9059cbb903390889073__$9fb44ff2c34f190f83e05881311175c942$__9063732a2ccf90604401602060405180830381865af415801561051e573d6000803e3d6000fd5b505050506040513d601f19601f820116820180604052508101906105429190611585565b61054c91906115e8565b610556908761160a565b6040516001600160e01b031960e085901b1681526001600160a01b03909216600483015260248201526044016020604051808303816000875af11580156105a1573d6000803e3d6000fd5b505050506040513d601f19601f820116820180604052508101906105c59190611629565b505080806105d29061164b565b9150506103b7565b50505050565b6105e8610fc4565b6105f061101e565b565b6001600160a01b03821660009081526004602052604090205460ff166106525760405162461bcd60e51b8152602060048201526015602482015274105cdcd95d081a5cc81b9bdd08185c1c1c9bdd9959605a1b60448201526064016102b2565b6040516370a0823160e01b815233600482015281906001600160a01b038416906370a0823190602401602060405180830381865afa158015610698573d6000803e3d6000fd5b505050506040513d601f19601f820116820180604052508101906106bc9190611585565b10156106ff5760405162461bcd60e51b8152602060048201526012602482015271125b9cdd59999a58da595b9d08105cdcd95d60721b60448201526064016102b2565b6040516323b872dd60e01b8152336004820152306024820152604481018290526000906001600160a01b038416906323b872dd906064016020604051808303816000875af1158015610755573d6000803e3d6000fd5b505050506040513d601f19601f820116820180604052508101906107799190611629565b9050806107ba5760405162461bcd60e51b815260206004820152600f60248201526e151c985b9cd9995c8811985a5b1959608a1b60448201526064016102b2565b60405163732a2ccf60e01b81526001600482018190526001600160a01b038516602483015273__$9fb44ff2c34f190f83e05881311175c942$__9163bc2b405c919086908690859063732a2ccf90604401602060405180830381865af4158015610828573d6000803e3d6000fd5b505050506040513d601f19601f8201168201806040525081019061084c9190611585565b6108569190611666565b6040516001600160e01b031960e086901b16815260048101939093526001600160a01b039091166024830152604482015260640160006040518083038186803b1580156108a257600080fd5b505af41580156108b6573d6000803e3d6000fd5b5050604080516001600160a01b0387168152602081018690527fddc69a07b5bfcee2b68a56a2e28e712c83e6b1372b06f80aaab04dbaca91020f935001905060405180910390a1505050565b6001600160a01b03811660009081526004602052604081205460ff166109595760405162461bcd60e51b815260206004820152600c60248201526b139bdd08185c1c1c9bdd995960a21b60448201526064016102b2565b60405163732a2ccf60e01b8152600160048201526001600160a01b038316602482015273__$9fb44ff2c34f190f83e05881311175c942$__9063732a2ccf90604401602060405180830381865af41580156109b8573d6000803e3d6000fd5b505050506040513d601f19601f820116820180604052508101906109dc9190611585565b92915050565b6109ea610fc4565b600680546001600160a01b0319166001600160a01b0392909216919091179055565b610a14611073565b6005544211610a565760405162461bcd60e51b815260206004820152600e60248201526d131bd8dada5b99c814195c9a5bd960921b60448201526064016102b2565b60005b81811015610ba1576006546040516329927cd560e11b81523360048201526000916001600160a01b031690635324f9aa90602401600060405180830381865afa158015610aaa573d6000803e3d6000fd5b505050506040513d6000823e601f3d908101601f19168201604052610ad29190810190611694565b905060076000858585818110610aea57610aea611752565b602090810292909201358352508101919091526040016000205460ff16158015610b315750610b3181858585818110610b2557610b25611752565b905060200201356110c0565b610b8e5760405162461bcd60e51b815260206004820152602860248201527f4e6f74206f776e6572206f6620746f6b656e206964206f7220616c72656164796044820152670818db185a5b595960c21b60648201526084016102b2565b5080610b998161164b565b915050610a59565b5060005b81811015610c0457600160076000858585818110610bc557610bc5611752565b90506020020135815260200190815260200160002060006101000a81548160ff0219169083151502179055508080610bfc9061164b565b915050610ba5565b50610c0e81611114565b5050565b610c1a610fc4565b6105f060006113af565b610c2c610fc4565b6105f06113ff565b610c3c610fc4565b604051632f0ad01760e21b8152600160048201526001600160a01b03821660248201526000604482015273__$9fb44ff2c34f190f83e05881311175c942$__9063bc2b405c906064015b60006040518083038186803b158015610c9e57600080fd5b505af4158015610cb2573d6000803e3d6000fd5b5050505050565b610cc1610fc4565b60055415610d115760405162461bcd60e51b815260206004820152601860248201527f4c6f636b2074696d6520697320616c726561647920736574000000000000000060448201526064016102b2565b610d1e816201518061160a565b610d289042611666565b60055550565b610d36610fc4565b60405163732a2ccf60e01b8152600160048201526001600160a01b038216602482015260009073__$9fb44ff2c34f190f83e05881311175c942$__9063732a2ccf90604401602060405180830381865af4158015610d98573d6000803e3d6000fd5b505050506040513d601f19601f82011682018060405250810190610dbc9190611585565b1115610f045760405163732a2ccf60e01b8152600160048201526001600160a01b0382166024820181905260009163a9059cbb90339073__$9fb44ff2c34f190f83e05881311175c942$__9063732a2ccf90604401602060405180830381865af4158015610e2e573d6000803e3d6000fd5b505050506040513d601f19601f82011682018060405250810190610e529190611585565b6040516001600160e01b031960e085901b1681526001600160a01b03909216600483015260248201526044016020604051808303816000875af1158015610e9d573d6000803e3d6000fd5b505050506040513d601f19601f82011682018060405250810190610ec19190611629565b905080610f025760405162461bcd60e51b815260206004820152600f60248201526e151c985b9cd9995c8811985a5b1959608a1b60448201526064016102b2565b505b60405163131836e760e21b8152600160048201526001600160a01b038216602482015273__$9fb44ff2c34f190f83e05881311175c942$__90634c60db9c90604401610c86565b610f53610fc4565b6001600160a01b038116610fb85760405162461bcd60e51b815260206004820152602660248201527f4f776e61626c653a206e6577206f776e657220697320746865207a65726f206160448201526564647265737360d01b60648201526084016102b2565b610fc1816113af565b50565b6000546001600160a01b031633146105f05760405162461bcd60e51b815260206004820181905260248201527f4f776e61626c653a2063616c6c6572206973206e6f7420746865206f776e657260448201526064016102b2565b611026611442565b6000805460ff60a01b191690557f5db9ee0a495bf2e6ff9c91a7834c1ba4fdd244a5e8aa4e537bd38aeae4b073aa335b6040516001600160a01b03909116815260200160405180910390a1565b600054600160a01b900460ff16156105f05760405162461bcd60e51b815260206004820152601060248201526f14185d5cd8589b194e881c185d5cd95960821b60448201526064016102b2565b6000805b835181101561110a57828482815181106110e0576110e0611752565b602002602001015114156110f85760019150506109dc565b806111028161164b565b9150506110c4565b5060009392505050565b600654604080516362720d9160e11b815290516000926001600160a01b03169163c4e41b229160048083019260209291908290030181865afa15801561115e573d6000803e3d6000fd5b505050506040513d601f19601f820116820180604052508101906111829190611585565b905060005b604051636f59ec4b60e11b81526001600482015273__$9fb44ff2c34f190f83e05881311175c942$__9063deb3d89690602401602060405180830381865af41580156111d7573d6000803e3d6000fd5b505050506040513d601f19601f820116820180604052508101906111fb9190611585565b8110156113aa576040516368d54f3f60e11b8152600160048201526024810182905260009073__$9fb44ff2c34f190f83e05881311175c942$__9063d1aa9e7e90604401602060405180830381865af415801561125c573d6000803e3d6000fd5b505050506040513d601f19601f8201168201806040525081019061128091906115cb565b60405163732a2ccf60e01b8152600160048201526001600160a01b0382166024820181905291925063a9059cbb903390869073__$9fb44ff2c34f190f83e05881311175c942$__9063732a2ccf90604401602060405180830381865af41580156112ee573d6000803e3d6000fd5b505050506040513d601f19601f820116820180604052508101906113129190611585565b61131c91906115e8565b611326908861160a565b6040516001600160e01b031960e085901b1681526001600160a01b03909216600483015260248201526044016020604051808303816000875af1158015611371573d6000803e3d6000fd5b505050506040513d601f19601f820116820180604052508101906113959190611629565b505080806113a29061164b565b915050611187565b505050565b600080546001600160a01b038381166001600160a01b0319831681178455604051919092169283917f8be0079c531659141344cd1fd0a4f28419497f9722a3daafe3b4186f6b6457e09190a35050565b611407611073565b6000805460ff60a01b1916600160a01b1790557f62e78cea01bee320cd4e420270b5ea74000d11b0c9f74754ebdbfc544b05a2586110563390565b600054600160a01b900460ff166105f05760405162461bcd60e51b815260206004820152601460248201527314185d5cd8589b194e881b9bdd081c185d5cd95960621b60448201526064016102b2565b6001600160a01b0381168114610fc157600080fd5b600080604083850312156114ba57600080fd5b82356114c581611492565b946020939093013593505050565b6000602082840312156114e557600080fd5b81356114f081611492565b9392505050565b6000806020838503121561150a57600080fd5b823567ffffffffffffffff8082111561152257600080fd5b818501915085601f83011261153657600080fd5b81358181111561154557600080fd5b8660208260051b850101111561155a57600080fd5b60209290920196919550909350505050565b60006020828403121561157e57600080fd5b5035919050565b60006020828403121561159757600080fd5b5051919050565b634e487b7160e01b600052601160045260246000fd5b6000828210156115c6576115c661159e565b500390565b6000602082840312156115dd57600080fd5b81516114f081611492565b60008261160557634e487b7160e01b600052601260045260246000fd5b500490565b60008160001904831182151516156116245761162461159e565b500290565b60006020828403121561163b57600080fd5b815180151581146114f057600080fd5b600060001982141561165f5761165f61159e565b5060010190565b600082198211156116795761167961159e565b500190565b634e487b7160e01b600052604160045260246000fd5b600060208083850312156116a757600080fd5b825167ffffffffffffffff808211156116bf57600080fd5b818501915085601f8301126116d357600080fd5b8151818111156116e5576116e561167e565b8060051b604051601f19603f8301168101818110858211171561170a5761170a61167e565b60405291825284820192508381018501918883111561172857600080fd5b938501935b828510156117465784518452938501939285019261172d565b98975050505050505050565b634e487b7160e01b600052603260045260246000fdfea2646970667358221220e40cf9521f73d2f2a5ffa9994cf205ec73111c317bb64a1b5150bf2dca5bf5e364736f6c634300080b0033",
  "linkReferences": {
    "contracts/AssetLock.sol": {
      "IterableMapping": [
        {
          "length": 20,
          "start": 1222
        },
        {
          "length": 20,
          "start": 1355
        },
        {
          "length": 20,
          "start": 1501
        },
        {
          "length": 20,
          "start": 2266
        },
        {
          "length": 20,
          "start": 2679
        },
        {
          "length": 20,
          "start": 3425
        },
        {
          "length": 20,
          "start": 3671
        },
        {
          "length": 20,
          "start": 3821
        },
        {
          "length": 20,
          "start": 4130
        },
        {
          "length": 20,
          "start": 4758
        },
        {
          "length": 20,
          "start": 4891
        },
        {
          "length": 20,
          "start": 5037
        }
      ]
    }
  },
  "deployedLinkReferences": {
    "contracts/AssetLock.sol": {
      "IterableMapping": [
        {
          "length": 20,
          "start": 973
        },
        {
          "length": 20,
          "start": 1106
        },
        {
          "length": 20,
          "start": 1252
        },
        {
          "length": 20,
          "start": 2017
        },
        {
          "length": 20,
          "start": 2430
        },
        {
          "length": 20,
          "start": 3176
        },
        {
          "length": 20,
          "start": 3422
        },
        {
          "length": 20,
          "start": 3572
        },
        {
          "length": 20,
          "start": 3881
        },
        {
          "length": 20,
          "start": 4509
        },
        {
          "length": 20,
          "start": 4642
        },
        {
          "length": 20,
          "start": 4788
        }
      ]
    }
  }
}