{
  "_format": "hh-sol-artifact-1",
  "contractName": "SugarHeadNFT",
  "sourceName": "contracts/NFT.sol",
  "abi": [
    {
      "inputs": [
        {
          "internalType": "string",
          "name": "name",
          "type": "string"
        },
        {
          "internalType": "string",
          "name": "symbol",
          "type": "string"
        },
        {
          "internalType": "address",
          "name": "chadinu",
          "type": "address"
        },
        {
          "internalType": "address",
          "name": "dvda",
          "type": "address"
        },
        {
          "internalType": "uint256",
          "name": "nftPrice",
          "type": "uint256"
        }
      ],
      "stateMutability": "nonpayable",
      "type": "constructor"
    },
    {
      "anonymous": false,
      "inputs": [
        {
          "indexed": true,
          "internalType": "address",
          "name": "owner",
          "type": "address"
        },
        {
          "indexed": true,
          "internalType": "address",
          "name": "approved",
          "type": "address"
        },
        {
          "indexed": true,
          "internalType": "uint256",
          "name": "tokenId",
          "type": "uint256"
        }
      ],
      "name": "Approval",
      "type": "event"
    },
    {
      "anonymous": false,
      "inputs": [
        {
          "indexed": true,
          "internalType": "address",
          "name": "owner",
          "type": "address"
        },
        {
          "indexed": true,
          "internalType": "address",
          "name": "operator",
          "type": "address"
        },
        {
          "indexed": false,
          "internalType": "bool",
          "name": "approved",
          "type": "bool"
        }
      ],
      "name": "ApprovalForAll",
      "type": "event"
    },
    {
      "anonymous": false,
      "inputs": [
        {
          "indexed": true,
          "internalType": "address",
          "name": "previousOwner",
          "type": "address"
        },
        {
          "indexed": true,
          "internalType": "address",
          "name": "newOwner",
          "type": "address"
        }
      ],
      "name": "OwnershipTransferred",
      "type": "event"
    },
    {
      "anonymous": false,
      "inputs": [
        {
          "indexed": false,
          "internalType": "address",
          "name": "account",
          "type": "address"
        }
      ],
      "name": "Paused",
      "type": "event"
    },
    {
      "anonymous": false,
      "inputs": [
        {
          "indexed": true,
          "internalType": "address",
          "name": "from",
          "type": "address"
        },
        {
          "indexed": true,
          "internalType": "address",
          "name": "to",
          "type": "address"
        },
        {
          "indexed": true,
          "internalType": "uint256",
          "name": "tokenId",
          "type": "uint256"
        }
      ],
      "name": "Transfer",
      "type": "event"
    },
    {
      "anonymous": false,
      "inputs": [
        {
          "indexed": false,
          "internalType": "address",
          "name": "account",
          "type": "address"
        }
      ],
      "name": "Unpaused",
      "type": "event"
    },
    {
      "inputs": [],
      "name": "ChadinuVip",
      "outputs": [
        {
          "internalType": "contract IChadInuVIPClub",
          "name": "",
          "type": "address"
        }
      ],
      "stateMutability": "view",
      "type": "function"
    },
    {
      "inputs": [],
      "name": "DVDA",
      "outputs": [
        {
          "internalType": "contract IERC721",
          "name": "",
          "type": "address"
        }
      ],
      "stateMutability": "view",
      "type": "function"
    },
    {
      "inputs": [],
      "name": "TOTAL_SUPPLY",
      "outputs": [
        {
          "internalType": "uint256",
          "name": "",
          "type": "uint256"
        }
      ],
      "stateMutability": "view",
      "type": "function"
    },
    {
      "inputs": [
        {
          "internalType": "address[]",
          "name": "_minters",
          "type": "address[]"
        },
        {
          "internalType": "bool",
          "name": "_flag",
          "type": "bool"
        }
      ],
      "name": "addEarlyMinters",
      "outputs": [],
      "stateMutability": "nonpayable",
      "type": "function"
    },
    {
      "inputs": [
        {
          "internalType": "address[]",
          "name": "_minters",
          "type": "address[]"
        },
        {
          "internalType": "uint32[]",
          "name": "_amounts",
          "type": "uint32[]"
        }
      ],
      "name": "addFreeMinters",
      "outputs": [],
      "stateMutability": "nonpayable",
      "type": "function"
    },
    {
      "inputs": [
        {
          "internalType": "address",
          "name": "to",
          "type": "address"
        },
        {
          "internalType": "uint256",
          "name": "tokenId",
          "type": "uint256"
        }
      ],
      "name": "approve",
      "outputs": [],
      "stateMutability": "nonpayable",
      "type": "function"
    },
    {
      "inputs": [
        {
          "internalType": "address",
          "name": "owner",
          "type": "address"
        }
      ],
      "name": "balanceOf",
      "outputs": [
        {
          "internalType": "uint256",
          "name": "",
          "type": "uint256"
        }
      ],
      "stateMutability": "view",
      "type": "function"
    },
    {
      "inputs": [],
      "name": "baseTokenURI",
      "outputs": [
        {
          "internalType": "string",
          "name": "",
          "type": "string"
        }
      ],
      "stateMutability": "view",
      "type": "function"
    },
    {
      "inputs": [
        {
          "internalType": "uint32",
          "name": "_amount",
          "type": "uint32"
        }
      ],
      "name": "buyNFTEarly",
      "outputs": [],
      "stateMutability": "payable",
      "type": "function"
    },
    {
      "inputs": [],
      "name": "buyNFTForFree",
      "outputs": [],
      "stateMutability": "nonpayable",
      "type": "function"
    },
    {
      "inputs": [],
      "name": "buyNFTWithChadinu",
      "outputs": [],
      "stateMutability": "nonpayable",
      "type": "function"
    },
    {
      "inputs": [
        {
          "internalType": "uint32",
          "name": "_amount",
          "type": "uint32"
        }
      ],
      "name": "buyNFTsInPublic",
      "outputs": [],
      "stateMutability": "payable",
      "type": "function"
    },
    {
      "inputs": [],
      "name": "currentPhase",
      "outputs": [
        {
          "internalType": "enum SugarHeadNFT.Phase",
          "name": "",
          "type": "uint8"
        }
      ],
      "stateMutability": "view",
      "type": "function"
    },
    {
      "inputs": [
        {
          "internalType": "address",
          "name": "",
          "type": "address"
        }
      ],
      "name": "freeMinters",
      "outputs": [
        {
          "internalType": "uint32",
          "name": "",
          "type": "uint32"
        }
      ],
      "stateMutability": "view",
      "type": "function"
    },
    {
      "inputs": [
        {
          "internalType": "uint256",
          "name": "tokenId",
          "type": "uint256"
        }
      ],
      "name": "getApproved",
      "outputs": [
        {
          "internalType": "address",
          "name": "",
          "type": "address"
        }
      ],
      "stateMutability": "view",
      "type": "function"
    },
    {
      "inputs": [],
      "name": "getCurrentTokenId",
      "outputs": [
        {
          "internalType": "uint256",
          "name": "",
          "type": "uint256"
        }
      ],
      "stateMutability": "view",
      "type": "function"
    },
    {
      "inputs": [],
      "name": "getPrice",
      "outputs": [
        {
          "internalType": "uint256",
          "name": "",
          "type": "uint256"
        }
      ],
      "stateMutability": "view",
      "type": "function"
    },
    {
      "inputs": [
        {
          "internalType": "address",
          "name": "owner",
          "type": "address"
        }
      ],
      "name": "getTokenIdsOf",
      "outputs": [
        {
          "internalType": "uint256[]",
          "name": "",
          "type": "uint256[]"
        }
      ],
      "stateMutability": "view",
      "type": "function"
    },
    {
      "inputs": [],
      "name": "getTotalSupply",
      "outputs": [
        {
          "internalType": "uint256",
          "name": "",
          "type": "uint256"
        }
      ],
      "stateMutability": "pure",
      "type": "function"
    },
    {
      "inputs": [
        {
          "internalType": "address",
          "name": "owner",
          "type": "address"
        },
        {
          "internalType": "address",
          "name": "operator",
          "type": "address"
        }
      ],
      "name": "isApprovedForAll",
      "outputs": [
        {
          "internalType": "bool",
          "name": "",
          "type": "bool"
        }
      ],
      "stateMutability": "view",
      "type": "function"
    },
    {
      "inputs": [
        {
          "internalType": "address",
          "name": "",
          "type": "address"
        }
      ],
      "name": "isEarlyMinter",
      "outputs": [
        {
          "internalType": "bool",
          "name": "",
          "type": "bool"
        }
      ],
      "stateMutability": "view",
      "type": "function"
    },
    {
      "inputs": [],
      "name": "name",
      "outputs": [
        {
          "internalType": "string",
          "name": "",
          "type": "string"
        }
      ],
      "stateMutability": "view",
      "type": "function"
    },
    {
      "inputs": [],
      "name": "owner",
      "outputs": [
        {
          "internalType": "address",
          "name": "",
          "type": "address"
        }
      ],
      "stateMutability": "view",
      "type": "function"
    },
    {
      "inputs": [
        {
          "internalType": "uint256",
          "name": "tokenId",
          "type": "uint256"
        }
      ],
      "name": "ownerOf",
      "outputs": [
        {
          "internalType": "address",
          "name": "",
          "type": "address"
        }
      ],
      "stateMutability": "view",
      "type": "function"
    },
    {
      "inputs": [],
      "name": "pause",
      "outputs": [],
      "stateMutability": "nonpayable",
      "type": "function"
    },
    {
      "inputs": [],
      "name": "paused",
      "outputs": [
        {
          "internalType": "bool",
          "name": "",
          "type": "bool"
        }
      ],
      "stateMutability": "view",
      "type": "function"
    },
    {
      "inputs": [],
      "name": "renounceOwnership",
      "outputs": [],
      "stateMutability": "nonpayable",
      "type": "function"
    },
    {
      "inputs": [
        {
          "internalType": "uint256",
          "name": "_tokenId",
          "type": "uint256"
        },
        {
          "internalType": "uint256",
          "name": "_salePrice",
          "type": "uint256"
        }
      ],
      "name": "royaltyInfo",
      "outputs": [
        {
          "internalType": "address",
          "name": "receiver",
          "type": "address"
        },
        {
          "internalType": "uint256",
          "name": "royaltyAmount",
          "type": "uint256"
        }
      ],
      "stateMutability": "view",
      "type": "function"
    },
    {
      "inputs": [
        {
          "internalType": "address",
          "name": "_from",
          "type": "address"
        },
        {
          "internalType": "address",
          "name": "_to",
          "type": "address"
        },
        {
          "internalType": "uint256",
          "name": "_tokenId",
          "type": "uint256"
        }
      ],
      "name": "safeTransferFrom",
      "outputs": [],
      "stateMutability": "nonpayable",
      "type": "function"
    },
    {
      "inputs": [
        {
          "internalType": "address",
          "name": "_from",
          "type": "address"
        },
        {
          "internalType": "address",
          "name": "_to",
          "type": "address"
        },
        {
          "internalType": "uint256",
          "name": "_tokenId",
          "type": "uint256"
        },
        {
          "internalType": "bytes",
          "name": "_data",
          "type": "bytes"
        }
      ],
      "name": "safeTransferFrom",
      "outputs": [],
      "stateMutability": "nonpayable",
      "type": "function"
    },
    {
      "inputs": [
        {
          "internalType": "address",
          "name": "operator",
          "type": "address"
        },
        {
          "internalType": "bool",
          "name": "approved",
          "type": "bool"
        }
      ],
      "name": "setApprovalForAll",
      "outputs": [],
      "stateMutability": "nonpayable",
      "type": "function"
    },
    {
      "inputs": [
        {
          "internalType": "string",
          "name": "baseURI",
          "type": "string"
        }
      ],
      "name": "setBaseURI",
      "outputs": [],
      "stateMutability": "nonpayable",
      "type": "function"
    },
    {
      "inputs": [
        {
          "internalType": "uint32",
          "name": "_phase",
          "type": "uint32"
        }
      ],
      "name": "setPhase",
      "outputs": [],
      "stateMutability": "nonpayable",
      "type": "function"
    },
    {
      "inputs": [
        {
          "internalType": "uint256",
          "name": "_price",
          "type": "uint256"
        }
      ],
      "name": "setPrice",
      "outputs": [],
      "stateMutability": "nonpayable",
      "type": "function"
    },
    {
      "inputs": [
        {
          "internalType": "bytes4",
          "name": "interfaceId",
          "type": "bytes4"
        }
      ],
      "name": "supportsInterface",
      "outputs": [
        {
          "internalType": "bool",
          "name": "",
          "type": "bool"
        }
      ],
      "stateMutability": "view",
      "type": "function"
    },
    {
      "inputs": [],
      "name": "symbol",
      "outputs": [
        {
          "internalType": "string",
          "name": "",
          "type": "string"
        }
      ],
      "stateMutability": "view",
      "type": "function"
    },
    {
      "inputs": [
        {
          "internalType": "uint256",
          "name": "tokenId",
          "type": "uint256"
        }
      ],
      "name": "tokenURI",
      "outputs": [
        {
          "internalType": "string",
          "name": "",
          "type": "string"
        }
      ],
      "stateMutability": "view",
      "type": "function"
    },
    {
      "inputs": [
        {
          "internalType": "address",
          "name": "_from",
          "type": "address"
        },
        {
          "internalType": "address",
          "name": "_to",
          "type": "address"
        },
        {
          "internalType": "uint256",
          "name": "_tokenId",
          "type": "uint256"
        }
      ],
      "name": "transferFrom",
      "outputs": [],
      "stateMutability": "nonpayable",
      "type": "function"
    },
    {
      "inputs": [
        {
          "internalType": "address",
          "name": "newOwner",
          "type": "address"
        }
      ],
      "name": "transferOwnership",
      "outputs": [],
      "stateMutability": "nonpayable",
      "type": "function"
    },
    {
      "inputs": [],
      "name": "unpause",
      "outputs": [],
      "stateMutability": "nonpayable",
      "type": "function"
    },
    {
      "inputs": [],
      "name": "withdraw",
      "outputs": [],
      "stateMutability": "nonpayable",
      "type": "function"
    },
    {
      "stateMutability": "payable",
      "type": "receive"
    }
  ],
  "bytecode": "0x60806040523480156200001157600080fd5b50604051620031e5380380620031e58339810160408190526200003491620002b5565b8451859085906200004d90600090602085019062000125565b5080516200006390600190602084019062000125565b505050620000806200007a620000cf60201b60201c565b620000d3565b6007805460ff60a01b19169055600955600a8054610100600160a81b0319166101006001600160a01b0394851602179055600b80546001600160a01b03191691909216179055506200038b9050565b3390565b600780546001600160a01b038381166001600160a01b0319831681179093556040519116919082907f8be0079c531659141344cd1fd0a4f28419497f9722a3daafe3b4186f6b6457e090600090a35050565b82805462000133906200034e565b90600052602060002090601f016020900481019282620001575760008555620001a2565b82601f106200017257805160ff1916838001178555620001a2565b82800160010185558215620001a2579182015b82811115620001a257825182559160200191906001019062000185565b50620001b0929150620001b4565b5090565b5b80821115620001b05760008155600101620001b5565b634e487b7160e01b600052604160045260246000fd5b600082601f830112620001f357600080fd5b81516001600160401b0380821115620002105762000210620001cb565b604051601f8301601f19908116603f011681019082821181831017156200023b576200023b620001cb565b816040528381526020925086838588010111156200025857600080fd5b600091505b838210156200027c57858201830151818301840152908201906200025d565b838211156200028e5760008385830101525b9695505050505050565b80516001600160a01b0381168114620002b057600080fd5b919050565b600080600080600060a08688031215620002ce57600080fd5b85516001600160401b0380821115620002e657600080fd5b620002f489838a01620001e1565b965060208801519150808211156200030b57600080fd5b506200031a88828901620001e1565b9450506200032b6040870162000298565b92506200033b6060870162000298565b9150608086015190509295509295909350565b600181811c908216806200036357607f821691505b602082108114156200038557634e487b7160e01b600052602260045260246000fd5b50919050565b612e4a806200039b6000396000f3fe6080604052600436106102495760003560e01c80636352211e11610139578063a22cb465116100b6578063d547cfb71161007a578063d547cfb7146106ad578063e985e9c5146106c2578063f2fde38b1461070b578063f6e8fe1f1461072b578063f7bb0f4b14610740578063f8b087121461076557600080fd5b8063a22cb46514610625578063b88d4fde14610645578063c4e41b2214610665578063c87b56dd1461067a578063c8866d941461069a57600080fd5b80638da5cb5b116100fd5780638da5cb5b146105a7578063902d55a5146105c557806391b7f5ed146105db57806395d89b41146105fb57806398d5fdca1461061057600080fd5b80636352211e1461052857806370a0823114610548578063715018a614610568578063821bca771461057d5780638456cb591461059257600080fd5b806323b872dd116101c757806342842e0e1161018b57806342842e0e146104795780635324f9aa1461049957806355f804b3146104c657806356189236146104e65780635c975abb1461050957600080fd5b806323b872dd146103d0578063278f1ffb146103f05780632a55205a146104105780633ccfd60b1461044f5780633f4ba83a1461046457600080fd5b8063095ea7b31161020e578063095ea7b31461033b57806317dc55c21461035d5780631f4730321461037d57806320aa8c1914610390578063214bb348146103b057600080fd5b8062453a981461025557806301ffc9a71461029a578063055ad42e146102ba57806306fdde03146102e1578063081812fc1461030357600080fd5b3661025057005b600080fd5b34801561026157600080fd5b506102856102703660046125dc565b600f6020526000908152604090205460ff1681565b60405190151581526020015b60405180910390f35b3480156102a657600080fd5b506102856102b5366004612614565b6107ad565b3480156102c657600080fd5b50600a546102d49060ff1681565b6040516102919190612647565b3480156102ed57600080fd5b506102f66107be565b60405161029191906126c7565b34801561030f57600080fd5b5061032361031e3660046126da565b610850565b6040516001600160a01b039091168152602001610291565b34801561034757600080fd5b5061035b6103563660046126f3565b610877565b005b34801561036957600080fd5b5061035b610378366004612779565b610992565b61035b61038b3660046127cd565b610a11565b34801561039c57600080fd5b5061035b6103ab3660046127cd565b610b85565b3480156103bc57600080fd5b50600b54610323906001600160a01b031681565b3480156103dc57600080fd5b5061035b6103eb3660046127f3565b610bf2565b3480156103fc57600080fd5b5061035b61040b36600461282f565b610c37565b34801561041c57600080fd5b5061043061042b36600461289b565b610d26565b604080516001600160a01b039093168352602083019190915201610291565b34801561045b57600080fd5b5061035b610d51565b34801561047057600080fd5b5061035b610d92565b34801561048557600080fd5b5061035b6104943660046127f3565b610da4565b3480156104a557600080fd5b506104b96104b43660046125dc565b610dbf565b60405161029191906128bd565b3480156104d257600080fd5b5061035b6104e136600461298d565b610e2b565b3480156104f257600080fd5b506104fb610e4a565b604051908152602001610291565b34801561051557600080fd5b50600754600160a01b900460ff16610285565b34801561053457600080fd5b506103236105433660046126da565b610e5a565b34801561055457600080fd5b506104fb6105633660046125dc565b610eba565b34801561057457600080fd5b5061035b610f40565b34801561058957600080fd5b5061035b610f52565b34801561059e57600080fd5b5061035b6111ba565b3480156105b357600080fd5b506007546001600160a01b0316610323565b3480156105d157600080fd5b506104fb6105dc81565b3480156105e757600080fd5b5061035b6105f63660046126da565b6111ca565b34801561060757600080fd5b506102f66111d7565b34801561061c57600080fd5b506009546104fb565b34801561063157600080fd5b5061035b6106403660046129d6565b6111e6565b34801561065157600080fd5b5061035b610660366004612a00565b6111f1565b34801561067157600080fd5b506105dc6104fb565b34801561068657600080fd5b506102f66106953660046126da565b611211565b61035b6106a83660046127cd565b6112c2565b3480156106b957600080fd5b506102f66114fb565b3480156106ce57600080fd5b506102856106dd366004612a7c565b6001600160a01b03918216600090815260056020908152604080832093909416825291909152205460ff1690565b34801561071757600080fd5b5061035b6107263660046125dc565b611589565b34801561073757600080fd5b5061035b6115ff565b34801561074c57600080fd5b50600a546103239061010090046001600160a01b031681565b34801561077157600080fd5b506107986107803660046125dc565b600e6020526000908152604090205463ffffffff1681565b60405163ffffffff9091168152602001610291565b60006107b8826117e5565b92915050565b6060600080546107cd90612aa6565b80601f01602080910402602001604051908101604052809291908181526020018280546107f990612aa6565b80156108465780601f1061081b57610100808354040283529160200191610846565b820191906000526020600020905b81548152906001019060200180831161082957829003601f168201915b5050505050905090565b600061085b82611835565b506000908152600460205260409020546001600160a01b031690565b600061088282610e5a565b9050806001600160a01b0316836001600160a01b031614156108f55760405162461bcd60e51b815260206004820152602160248201527f4552433732313a20617070726f76616c20746f2063757272656e74206f776e656044820152603960f91b60648201526084015b60405180910390fd5b336001600160a01b0382161480610911575061091181336106dd565b6109835760405162461bcd60e51b815260206004820152603d60248201527f4552433732313a20617070726f76652063616c6c6572206973206e6f7420746f60448201527f6b656e206f776e6572206f7220617070726f76656420666f7220616c6c00000060648201526084016108ec565b61098d8383611894565b505050565b61099a611902565b60005b82811015610a0b5781600f60008686858181106109bc576109bc612ae1565b90506020020160208101906109d191906125dc565b6001600160a01b031681526020810191909152604001600020805460ff191691151591909117905580610a0381612b0d565b91505061099d565b50505050565b8060038163ffffffff1611158015610a2f575060008163ffffffff16115b610a6c5760405162461bcd60e51b815260206004820152600e60248201526d125b9d985b1a5908185b5bdd5b9d60921b60448201526064016108ec565b6002600a5460ff166002811115610a8557610a85612631565b14610ac35760405162461bcd60e51b815260206004820152600e60248201526d4e6f205075626c69632053616c6560901b60448201526064016108ec565b346009548363ffffffff16610ad89190612b28565b14610b185760405162461bcd60e51b815260206004820152601060248201526f125b9cdd59999a58d95b9d08119d5b9960821b60448201526064016108ec565b6105dc8263ffffffff16610b2b60085490565b610b359190612b47565b1115610b535760405162461bcd60e51b81526004016108ec90612b5f565b60005b8263ffffffff168163ffffffff16101561098d57610b733361195c565b80610b7d81612b87565b915050610b56565b610b8d611902565b63ffffffff8116610bb057600a80546000919060ff19166001835b021790555050565b8063ffffffff1660011415610bd257600a80546001919060ff19168280610ba8565b8063ffffffff1660021415610bef57600a805460ff191660021790555b50565b6001600160a01b038316610c0557600080fd5b6001600160a01b038216610c1857600080fd5b610c2383838361198e565b610c2d83826119bf565b61098d8282611b6f565b610c3f611902565b828114610c7f5760405162461bcd60e51b815260206004820152600e60248201526d496e76616c696420496e7075747360901b60448201526064016108ec565b60005b83811015610d1f57828282818110610c9c57610c9c612ae1565b9050602002016020810190610cb191906127cd565b600e6000878785818110610cc757610cc7612ae1565b9050602002016020810190610cdc91906125dc565b6001600160a01b031681526020810191909152604001600020805463ffffffff191663ffffffff9290921691909117905580610d1781612b0d565b915050610c82565b5050505050565b600080610d3b6007546001600160a01b031690565b9150610d48601484612bab565b90509250929050565b610d59611902565b6007546040516001600160a01b03909116904780156108fc02916000818181858888f19350505050158015610bef573d6000803e3d6000fd5b610d9a611902565b610da2611b9b565b565b61098d838383604051806020016040528060008152506111f1565b6001600160a01b0381166000908152600d6020908152604091829020805483518184028101840190945280845260609392830182828015610e1f57602002820191906000526020600020905b815481526020019060010190808311610e0b575b50505050509050919050565b610e33611902565b8051610e4690600c906020840190612527565b5050565b6000610e5560085490565b905090565b6000818152600260205260408120546001600160a01b0316806107b85760405162461bcd60e51b8152602060048201526018602482015277115490cdcc8c4e881a5b9d985b1a59081d1bdad95b88125160421b60448201526064016108ec565b60006001600160a01b038216610f245760405162461bcd60e51b815260206004820152602960248201527f4552433732313a2061646472657373207a65726f206973206e6f7420612076616044820152683634b21037bbb732b960b91b60648201526084016108ec565b506001600160a01b031660009081526003602052604090205490565b610f48611902565b610da26000611bf0565b6000600a5460ff166002811115610f6b57610f6b612631565b14610fa75760405162461bcd60e51b815260206004820152600c60248201526b4e6f20467265652053616c6560a01b60448201526064016108ec565b336000908152600e60205260409020546105dc9063ffffffff16610fca60085490565b610fd49190612b47565b1115610ff25760405162461bcd60e51b81526004016108ec90612b5f565b336000908152600e602052604090205463ffffffff166110465760405162461bcd60e51b815260206004820152600f60248201526e139bdd0815da1a5d195b1a5cdd1959608a1b60448201526064016108ec565b600a546040516370a0823160e01b815233600482015260009161010090046001600160a01b0316906370a0823190602401602060405180830381865afa158015611094573d6000803e3d6000fd5b505050506040513d601f19601f820116820180604052508101906110b89190612bcd565b116110c45760006110c7565b60015b6040516370a0823160e01b815233600482015260ff919091169030906370a0823190602401602060405180830381865afa158015611109573d6000803e3d6000fd5b505050506040513d601f19601f8201168201806040525081019061112d9190612bcd565b111561117b5760405162461bcd60e51b815260206004820152601860248201527f416c7265616479206d696e7465642066726565204e465473000000000000000060448201526064016108ec565b60005b336000908152600e602052604090205463ffffffff9081169082161015610bef576111a83361195c565b806111b281612b87565b91505061117e565b6111c2611902565b610da2611c42565b6111d2611902565b600955565b6060600180546107cd90612aa6565b610e46338383611c85565b6111fd84848484611d54565b61120784836119bf565b610a0b8383611b6f565b6000818152600260205260409020546060906001600160a01b03166112905760405162461bcd60e51b815260206004820152602f60248201527f4552433732314d657461646174613a2055524920717565727920666f72206e6f60448201526e3732bc34b9ba32b73a103a37b5b2b760891b60648201526084016108ec565b600c61129b83611d86565b6040516020016112ac929190612c02565b6040516020818303038152906040529050919050565b8060038163ffffffff16111580156112e0575060008163ffffffff16115b61131d5760405162461bcd60e51b815260206004820152600e60248201526d125b9d985b1a5908185b5bdd5b9d60921b60448201526064016108ec565b6001600a5460ff16600281111561133657611336612631565b146113735760405162461bcd60e51b815260206004820152600d60248201526c4e6f204561726c792053616c6560981b60448201526064016108ec565b346009548363ffffffff166113889190612b28565b146113c85760405162461bcd60e51b815260206004820152601060248201526f125b9cdd59999a58d95b9d08119d5b9960821b60448201526064016108ec565b6105dc8263ffffffff166113db60085490565b6113e59190612b47565b11156114035760405162461bcd60e51b81526004016108ec90612b5f565b600b546040516370a0823160e01b81523360048201526000916001600160a01b0316906370a0823190602401602060405180830381865afa15801561144c573d6000803e3d6000fd5b505050506040513d601f19601f820116820180604052508101906114709190612bcd565b118061148b5750336000908152600f602052604090205460ff165b6114c95760405162461bcd60e51b815260206004820152600f60248201526e139bdd0815da1a5d195b1a5cdd1959608a1b60448201526064016108ec565b60005b8263ffffffff168163ffffffff16101561098d576114e93361195c565b806114f381612b87565b9150506114cc565b600c805461150890612aa6565b80601f016020809104026020016040519081016040528092919081815260200182805461153490612aa6565b80156115815780601f1061155657610100808354040283529160200191611581565b820191906000526020600020905b81548152906001019060200180831161156457829003601f168201915b505050505081565b611591611902565b6001600160a01b0381166115f65760405162461bcd60e51b815260206004820152602660248201527f4f776e61626c653a206e6577206f776e657220697320746865207a65726f206160448201526564647265737360d01b60648201526084016108ec565b610bef81611bf0565b6040516370a0823160e01b815233600482015230906370a0823190602401602060405180830381865afa15801561163a573d6000803e3d6000fd5b505050506040513d601f19601f8201168201806040525081019061165e9190612bcd565b156116a25760405162461bcd60e51b81526020600482015260146024820152734f6e6c79206f6e65204e4654206973206672656560601b60448201526064016108ec565b6000600a5460ff1660028111156116bb576116bb612631565b146116f75760405162461bcd60e51b815260206004820152600c60248201526b4e6f20467265652053616c6560a01b60448201526064016108ec565b6105dc61170360085490565b61170e906001612b47565b111561172c5760405162461bcd60e51b81526004016108ec90612b5f565b600a546040516370a0823160e01b815233600482015260009161010090046001600160a01b0316906370a0823190602401602060405180830381865afa15801561177a573d6000803e3d6000fd5b505050506040513d601f19601f8201168201806040525081019061179e9190612bcd565b116117dc5760405162461bcd60e51b815260206004820152600e60248201526d04e6f2043686164696e75205649560941b60448201526064016108ec565b610da23361195c565b60006001600160e01b031982166380ac58cd60e01b148061181657506001600160e01b03198216635b5e139f60e01b145b806107b857506301ffc9a760e01b6001600160e01b03198316146107b8565b6000818152600260205260409020546001600160a01b0316610bef5760405162461bcd60e51b8152602060048201526018602482015277115490cdcc8c4e881a5b9d985b1a59081d1bdad95b88125160421b60448201526064016108ec565b600081815260046020526040902080546001600160a01b0319166001600160a01b03841690811790915581906118c982610e5a565b6001600160a01b03167f8c5be1e5ebec7d5bd14f71427d1e84f3dd0314c0f7b2291e5b200ac8c7c3b92560405160405180910390a45050565b6007546001600160a01b03163314610da25760405162461bcd60e51b815260206004820181905260248201527f4f776e61626c653a2063616c6c6572206973206e6f7420746865206f776e657260448201526064016108ec565b61196e8161196960085490565b611e23565b6119803361197b60085490565b611b6f565b610bef600880546001019055565b6119983382611e3d565b6119b45760405162461bcd60e51b81526004016108ec90612ca9565b61098d838383611ebc565b6001600160a01b0382166000908152600d6020908152604080832080548251818502810185019093528083528493830182828015611a1c57602002820191906000526020600020905b815481526020019060010190808311611a08575b5050505050905060005b81518163ffffffff161015611a7c5783828263ffffffff1681518110611a4e57611a4e612ae1565b60200260200101511415611a6a578063ffffffff169250611a7c565b80611a7481612b87565b915050611a26565b50600060018251611a8d9190612cf6565b90506000828281518110611aa357611aa3612ae1565b6020026020010151905080600d6000886001600160a01b03166001600160a01b031681526020019081526020016000208581548110611ae457611ae4612ae1565b60009182526020808320909101929092556001600160a01b0388168152600d90915260408120805484908110611b1c57611b1c612ae1565b60009182526020808320909101929092556001600160a01b0388168152600d90915260409020805480611b5157611b51612d0d565b60019003818190600052602060002001600090559055505050505050565b6001600160a01b039091166000908152600d602090815260408220805460018101825590835291200155565b611ba361202d565b6007805460ff60a01b191690557f5db9ee0a495bf2e6ff9c91a7834c1ba4fdd244a5e8aa4e537bd38aeae4b073aa335b6040516001600160a01b03909116815260200160405180910390a1565b600780546001600160a01b038381166001600160a01b0319831681179093556040519116919082907f8be0079c531659141344cd1fd0a4f28419497f9722a3daafe3b4186f6b6457e090600090a35050565b611c4a61207d565b6007805460ff60a01b1916600160a01b1790557f62e78cea01bee320cd4e420270b5ea74000d11b0c9f74754ebdbfc544b05a258611bd33390565b816001600160a01b0316836001600160a01b03161415611ce75760405162461bcd60e51b815260206004820152601960248201527f4552433732313a20617070726f766520746f2063616c6c65720000000000000060448201526064016108ec565b6001600160a01b03838116600081815260056020908152604080832094871680845294825291829020805460ff191686151590811790915591519182527f17307eab39ab6107e8899845ad3d59bd9653f200f220920489ca2b5937696c31910160405180910390a3505050565b611d5e3383611e3d565b611d7a5760405162461bcd60e51b81526004016108ec90612ca9565b610a0b848484846120ca565b60606000611d93836120fd565b600101905060008167ffffffffffffffff811115611db357611db3612901565b6040519080825280601f01601f191660200182016040528015611ddd576020820181803683370190505b5090508181016020015b600019016f181899199a1a9b1b9c1cb0b131b232b360811b600a86061a8153600a8504945084611e1657611e1b565b611de7565b509392505050565b610e468282604051806020016040528060008152506121d5565b600080611e4983610e5a565b9050806001600160a01b0316846001600160a01b03161480611e9057506001600160a01b0380821660009081526005602090815260408083209388168352929052205460ff165b80611eb45750836001600160a01b0316611ea984610850565b6001600160a01b0316145b949350505050565b826001600160a01b0316611ecf82610e5a565b6001600160a01b031614611ef55760405162461bcd60e51b81526004016108ec90612d23565b6001600160a01b038216611f575760405162461bcd60e51b8152602060048201526024808201527f4552433732313a207472616e7366657220746f20746865207a65726f206164646044820152637265737360e01b60648201526084016108ec565b611f648383836001612208565b826001600160a01b0316611f7782610e5a565b6001600160a01b031614611f9d5760405162461bcd60e51b81526004016108ec90612d23565b600081815260046020908152604080832080546001600160a01b03199081169091556001600160a01b0387811680865260038552838620805460001901905590871680865283862080546001019055868652600290945282852080549092168417909155905184937fddf252ad1be2c89b69c2b068fc378daa952ba7f163c4a11628f55a4df523b3ef91a4505050565b600754600160a01b900460ff16610da25760405162461bcd60e51b815260206004820152601460248201527314185d5cd8589b194e881b9bdd081c185d5cd95960621b60448201526064016108ec565b600754600160a01b900460ff1615610da25760405162461bcd60e51b815260206004820152601060248201526f14185d5cd8589b194e881c185d5cd95960821b60448201526064016108ec565b6120d5848484611ebc565b6120e184848484612290565b610a0b5760405162461bcd60e51b81526004016108ec90612d68565b60008072184f03e93ff9f4daa797ed6e38ed64bf6a1f0160401b831061213c5772184f03e93ff9f4daa797ed6e38ed64bf6a1f0160401b830492506040015b6d04ee2d6d415b85acef81000000008310612168576d04ee2d6d415b85acef8100000000830492506020015b662386f26fc10000831061218657662386f26fc10000830492506010015b6305f5e100831061219e576305f5e100830492506008015b61271083106121b257612710830492506004015b606483106121c4576064830492506002015b600a83106107b85760010192915050565b6121df838361238e565b6121ec6000848484612290565b61098d5760405162461bcd60e51b81526004016108ec90612d68565b6001811115610a0b576001600160a01b0384161561224e576001600160a01b03841660009081526003602052604081208054839290612248908490612cf6565b90915550505b6001600160a01b03831615610a0b576001600160a01b03831660009081526003602052604081208054839290612285908490612b47565b909155505050505050565b60006001600160a01b0384163b1561238357604051630a85bd0160e11b81526001600160a01b0385169063150b7a02906122d4903390899088908890600401612dba565b6020604051808303816000875af192505050801561230f575060408051601f3d908101601f1916820190925261230c91810190612df7565b60015b612369573d80801561233d576040519150601f19603f3d011682016040523d82523d6000602084013e612342565b606091505b5080516123615760405162461bcd60e51b81526004016108ec90612d68565b805181602001fd5b6001600160e01b031916630a85bd0160e11b149050611eb4565b506001949350505050565b6001600160a01b0382166123e45760405162461bcd60e51b815260206004820181905260248201527f4552433732313a206d696e7420746f20746865207a65726f206164647265737360448201526064016108ec565b6000818152600260205260409020546001600160a01b0316156124495760405162461bcd60e51b815260206004820152601c60248201527f4552433732313a20746f6b656e20616c7265616479206d696e7465640000000060448201526064016108ec565b612457600083836001612208565b6000818152600260205260409020546001600160a01b0316156124bc5760405162461bcd60e51b815260206004820152601c60248201527f4552433732313a20746f6b656e20616c7265616479206d696e7465640000000060448201526064016108ec565b6001600160a01b038216600081815260036020908152604080832080546001019055848352600290915280822080546001600160a01b0319168417905551839291907fddf252ad1be2c89b69c2b068fc378daa952ba7f163c4a11628f55a4df523b3ef908290a45050565b82805461253390612aa6565b90600052602060002090601f016020900481019282612555576000855561259b565b82601f1061256e57805160ff191683800117855561259b565b8280016001018555821561259b579182015b8281111561259b578251825591602001919060010190612580565b506125a79291506125ab565b5090565b5b808211156125a757600081556001016125ac565b80356001600160a01b03811681146125d757600080fd5b919050565b6000602082840312156125ee57600080fd5b6125f7826125c0565b9392505050565b6001600160e01b031981168114610bef57600080fd5b60006020828403121561262657600080fd5b81356125f7816125fe565b634e487b7160e01b600052602160045260246000fd5b602081016003831061266957634e487b7160e01b600052602160045260246000fd5b91905290565b60005b8381101561268a578181015183820152602001612672565b83811115610a0b5750506000910152565b600081518084526126b381602086016020860161266f565b601f01601f19169290920160200192915050565b6020815260006125f7602083018461269b565b6000602082840312156126ec57600080fd5b5035919050565b6000806040838503121561270657600080fd5b61270f836125c0565b946020939093013593505050565b60008083601f84011261272f57600080fd5b50813567ffffffffffffffff81111561274757600080fd5b6020830191508360208260051b850101111561276257600080fd5b9250929050565b803580151581146125d757600080fd5b60008060006040848603121561278e57600080fd5b833567ffffffffffffffff8111156127a557600080fd5b6127b18682870161271d565b90945092506127c4905060208501612769565b90509250925092565b6000602082840312156127df57600080fd5b813563ffffffff811681146125f757600080fd5b60008060006060848603121561280857600080fd5b612811846125c0565b925061281f602085016125c0565b9150604084013590509250925092565b6000806000806040858703121561284557600080fd5b843567ffffffffffffffff8082111561285d57600080fd5b6128698883890161271d565b9096509450602087013591508082111561288257600080fd5b5061288f8782880161271d565b95989497509550505050565b600080604083850312156128ae57600080fd5b50508035926020909101359150565b6020808252825182820181905260009190848201906040850190845b818110156128f5578351835292840192918401916001016128d9565b50909695505050505050565b634e487b7160e01b600052604160045260246000fd5b600067ffffffffffffffff8084111561293257612932612901565b604051601f8501601f19908116603f0116810190828211818310171561295a5761295a612901565b8160405280935085815286868601111561297357600080fd5b858560208301376000602087830101525050509392505050565b60006020828403121561299f57600080fd5b813567ffffffffffffffff8111156129b657600080fd5b8201601f810184136129c757600080fd5b611eb484823560208401612917565b600080604083850312156129e957600080fd5b6129f2836125c0565b9150610d4860208401612769565b60008060008060808587031215612a1657600080fd5b612a1f856125c0565b9350612a2d602086016125c0565b925060408501359150606085013567ffffffffffffffff811115612a5057600080fd5b8501601f81018713612a6157600080fd5b612a7087823560208401612917565b91505092959194509250565b60008060408385031215612a8f57600080fd5b612a98836125c0565b9150610d48602084016125c0565b600181811c90821680612aba57607f821691505b60208210811415612adb57634e487b7160e01b600052602260045260246000fd5b50919050565b634e487b7160e01b600052603260045260246000fd5b634e487b7160e01b600052601160045260246000fd5b6000600019821415612b2157612b21612af7565b5060010190565b6000816000190483118215151615612b4257612b42612af7565b500290565b60008219821115612b5a57612b5a612af7565b500190565b6020808252600e908201526d4e6f20456e6f677568204e46547360901b604082015260600190565b600063ffffffff80831681811415612ba157612ba1612af7565b6001019392505050565b600082612bc857634e487b7160e01b600052601260045260246000fd5b500490565b600060208284031215612bdf57600080fd5b5051919050565b60008151612bf881856020860161266f565b9290920192915050565b600080845481600182811c915080831680612c1e57607f831692505b6020808410821415612c3e57634e487b7160e01b86526022600452602486fd5b818015612c525760018114612c6357612c90565b60ff19861689528489019650612c90565b60008b81526020902060005b86811015612c885781548b820152908501908301612c6f565b505084890196505b505050505050612ca08185612be6565b95945050505050565b6020808252602d908201527f4552433732313a2063616c6c6572206973206e6f7420746f6b656e206f776e6560408201526c1c881bdc88185c1c1c9bdd9959609a1b606082015260800190565b600082821015612d0857612d08612af7565b500390565b634e487b7160e01b600052603160045260246000fd5b60208082526025908201527f4552433732313a207472616e736665722066726f6d20696e636f72726563742060408201526437bbb732b960d91b606082015260800190565b60208082526032908201527f4552433732313a207472616e7366657220746f206e6f6e20455243373231526560408201527131b2b4bb32b91034b6b83632b6b2b73a32b960711b606082015260800190565b6001600160a01b0385811682528416602082015260408101839052608060608201819052600090612ded9083018461269b565b9695505050505050565b600060208284031215612e0957600080fd5b81516125f7816125fe56fea264697066735822122025cede1c9315bedb81821070c5275f483fa020128db86159f7c4d7462732359f64736f6c634300080b0033",
  "linkReferences": {},
  "deployedLinkReferences": {}
}