{
  "contractName": "SendEther",
  "abi": [
    {
      "anonymous": false,
      "inputs": [
        {
          "indexed": true,
          "internalType": "address",
          "name": "previousOwner",
          "type": "address"
        },
        {
          "indexed": true,
          "internalType": "address",
          "name": "newOwner",
          "type": "address"
        }
      ],
      "name": "OwnershipTransferred",
      "type": "event"
    },
    {
      "inputs": [],
      "name": "owner",
      "outputs": [
        {
          "internalType": "address",
          "name": "",
          "type": "address"
        }
      ],
      "stateMutability": "view",
      "type": "function",
      "constant": true
    },
    {
      "inputs": [],
      "name": "renounceOwnership",
      "outputs": [],
      "stateMutability": "nonpayable",
      "type": "function"
    },
    {
      "inputs": [
        {
          "internalType": "address",
          "name": "newOwner",
          "type": "address"
        }
      ],
      "name": "transferOwnership",
      "outputs": [],
      "stateMutability": "nonpayable",
      "type": "function"
    },
    {
      "inputs": [],
      "name": "getBalance",
      "outputs": [
        {
          "internalType": "uint256",
          "name": "",
          "type": "uint256"
        }
      ],
      "stateMutability": "view",
      "type": "function",
      "constant": true
    },
    {
      "inputs": [
        {
          "internalType": "address",
          "name": "_target",
          "type": "address"
        }
      ],
      "name": "TransEther",
      "outputs": [],
      "stateMutability": "payable",
      "type": "function",
      "payable": true
    },
    {
      "inputs": [
        {
          "internalType": "uint256",
          "name": "_amount",
          "type": "uint256"
        }
      ],
      "name": "TransAble",
      "outputs": [
        {
          "internalType": "bool",
          "name": "",
          "type": "bool"
        }
      ],
      "stateMutability": "payable",
      "type": "function",
      "payable": true
    }
  ],
  "bytecode": "0x6080604052600a60015534801561001557600080fd5b5061003261002761003760201b60201c565b61003f60201b60201c565b610103565b600033905090565b60008060009054906101000a900473ffffffffffffffffffffffffffffffffffffffff169050816000806101000a81548173ffffffffffffffffffffffffffffffffffffffff021916908373ffffffffffffffffffffffffffffffffffffffff1602179055508173ffffffffffffffffffffffffffffffffffffffff168173ffffffffffffffffffffffffffffffffffffffff167f8be0079c531659141344cd1fd0a4f28419497f9722a3daafe3b4186f6b6457e060405160405180910390a35050565b610a13806101126000396000f3fe6080604052600436106100555760003560e01c806312065fe01461005a578063715018a61461008557806383a6fab91461009c5780638da5cb5b146100cc578063dde09b13146100f7578063f2fde38b14610113575b600080fd5b34801561006657600080fd5b5061006f61013c565b60405161007c9190610579565b60405180910390f35b34801561009157600080fd5b5061009a61015b565b005b6100b660048036038101906100b191906105c5565b6101e3565b6040516100c3919061060d565b60405180910390f35b3480156100d857600080fd5b506100e161022e565b6040516100ee9190610669565b60405180910390f35b610111600480360381019061010c91906106b0565b610257565b005b34801561011f57600080fd5b5061013a600480360381019061013591906106b0565b61030d565b005b60003373ffffffffffffffffffffffffffffffffffffffff1631905090565b610163610405565b73ffffffffffffffffffffffffffffffffffffffff1661018161022e565b73ffffffffffffffffffffffffffffffffffffffff16146101d7576040517f08c379a00000000000000000000000000000000000000000000000000000000081526004016101ce9061073a565b60405180910390fd5b6101e1600061040d565b565b60008060006101f1846104d1565b8092508193505050813373ffffffffffffffffffffffffffffffffffffffff16311061022257600192505050610229565b6000925050505b919050565b60008060009054906101000a900473ffffffffffffffffffffffffffffffffffffffff16905090565b600081905060008173ffffffffffffffffffffffffffffffffffffffff16346040516102829061078b565b60006040518083038185875af1925050503d80600081146102bf576040519150601f19603f3d011682016040523d82523d6000602084013e6102c4565b606091505b5050905080610308576040517f08c379a00000000000000000000000000000000000000000000000000000000081526004016102ff906107ec565b60405180910390fd5b505050565b610315610405565b73ffffffffffffffffffffffffffffffffffffffff1661033361022e565b73ffffffffffffffffffffffffffffffffffffffff1614610389576040517f08c379a00000000000000000000000000000000000000000000000000000000081526004016103809061073a565b60405180910390fd5b600073ffffffffffffffffffffffffffffffffffffffff168173ffffffffffffffffffffffffffffffffffffffff1614156103f9576040517f08c379a00000000000000000000000000000000000000000000000000000000081526004016103f09061087e565b60405180910390fd5b6104028161040d565b50565b600033905090565b60008060009054906101000a900473ffffffffffffffffffffffffffffffffffffffff169050816000806101000a81548173ffffffffffffffffffffffffffffffffffffffff021916908373ffffffffffffffffffffffffffffffffffffffff1602179055508173ffffffffffffffffffffffffffffffffffffffff168173ffffffffffffffffffffffffffffffffffffffff167f8be0079c531659141344cd1fd0a4f28419497f9722a3daafe3b4186f6b6457e060405160405180910390a35050565b60008060006104fe60646104f06001548761051e90919063ffffffff16565b61053490919063ffffffff16565b9050610513818561054a90919063ffffffff16565b819250925050915091565b6000818361052c91906108cd565b905092915050565b600081836105429190610956565b905092915050565b600081836105589190610987565b905092915050565b6000819050919050565b61057381610560565b82525050565b600060208201905061058e600083018461056a565b92915050565b600080fd5b6105a281610560565b81146105ad57600080fd5b50565b6000813590506105bf81610599565b92915050565b6000602082840312156105db576105da610594565b5b60006105e9848285016105b0565b91505092915050565b60008115159050919050565b610607816105f2565b82525050565b600060208201905061062260008301846105fe565b92915050565b600073ffffffffffffffffffffffffffffffffffffffff82169050919050565b600061065382610628565b9050919050565b61066381610648565b82525050565b600060208201905061067e600083018461065a565b92915050565b61068d81610648565b811461069857600080fd5b50565b6000813590506106aa81610684565b92915050565b6000602082840312156106c6576106c5610594565b5b60006106d48482850161069b565b91505092915050565b600082825260208201905092915050565b7f4f776e61626c653a2063616c6c6572206973206e6f7420746865206f776e6572600082015250565b60006107246020836106dd565b915061072f826106ee565b602082019050919050565b6000602082019050818103600083015261075381610717565b9050919050565b600081905092915050565b50565b600061077560008361075a565b915061078082610765565b600082019050919050565b600061079682610768565b9150819050919050565b7f4661696c656420746f2073656e64204574686572000000000000000000000000600082015250565b60006107d66014836106dd565b91506107e1826107a0565b602082019050919050565b60006020820190508181036000830152610805816107c9565b9050919050565b7f4f776e61626c653a206e6577206f776e657220697320746865207a65726f206160008201527f6464726573730000000000000000000000000000000000000000000000000000602082015250565b60006108686026836106dd565b91506108738261080c565b604082019050919050565b600060208201905081810360008301526108978161085b565b9050919050565b7f4e487b7100000000000000000000000000000000000000000000000000000000600052601160045260246000fd5b60006108d882610560565b91506108e383610560565b9250817fffffffffffffffffffffffffffffffffffffffffffffffffffffffffffffffff048311821515161561091c5761091b61089e565b5b828202905092915050565b7f4e487b7100000000000000000000000000000000000000000000000000000000600052601260045260246000fd5b600061096182610560565b915061096c83610560565b92508261097c5761097b610927565b5b828204905092915050565b600061099282610560565b915061099d83610560565b9250827fffffffffffffffffffffffffffffffffffffffffffffffffffffffffffffffff038211156109d2576109d161089e565b5b82820190509291505056fea264697066735822122050083cc82852759e878bef9900759fc15fc62d1da16b4a865360c4b35c30d9f164736f6c63430008090033",
  "immutableReferences": {},
  "source": "pragma solidity >=0.6 <0.9.0;\n\nimport \"@openzeppelin/contracts/access/Ownable.sol\";\nimport \"@openzeppelin/contracts/utils/math/SafeMath.sol\";\n\ncontract SendEther is Ownable {\n  using SafeMath for uint256;\n  uint256 private feeRate = 10;\n\n  function getBalance() external view returns(uint256) {\n    return msg.sender.balance;\n  }\n\n  function TransEther(address _target) external payable {\n    address payable tgt = payable(_target);\n    // tgt.transfer(msg.value);\n    (bool success1, ) = tgt.call{value:msg.value}(\"\");\n    require(success1, \"Failed to send Ether\");\n  }\n\n  function TransAble(uint256 _amount) external payable returns (bool) {\n    uint256 all;\n    uint256 fee;\n    (all, fee) = _allAmount(_amount);\n    if(msg.sender.balance >= all) {\n      return true;\n    }\n    else {\n      return false;\n    }\n  }\n\n  function _allAmount(uint256 _amount) private returns (uint256, uint256) {\n    uint256 fee = _amount.mul(feeRate).div(100);\n    return (_amount.add(fee), fee);\n  }\n}\n",
  "sourcePath": "D:\\HGG\\Work\\016_fieonix\\Fieonix\\dex\\contracts\\SendEther.sol",
  "compiler": {
    "name": "solc",
    "version": "0.8.9+commit.e5eed63a.Emscripten.clang"
  },
  "schemaVersion": "3.4.3",
  "updatedAt": "2021-10-11T02:50:41.910Z",
  "networkType": "ethereum",
  "devdoc": {
    "kind": "dev",
    "methods": {
      "owner()": {
        "details": "Returns the address of the current owner."
      },
      "renounceOwnership()": {
        "details": "Leaves the contract without owner. It will not be possible to call `onlyOwner` functions anymore. Can only be called by the current owner. NOTE: Renouncing ownership will leave the contract without an owner, thereby removing any functionality that is only available to the owner."
      },
      "transferOwnership(address)": {
        "details": "Transfers ownership of the contract to a new account (`newOwner`). Can only be called by the current owner."
      }
    },
    "version": 1
  },
  "userdoc": {
    "kind": "user",
    "methods": {},
    "version": 1
  }
}